:020000040800F2
:10000000900A0020790200084F39000809350008DD
:100010004D390008471D00086D3F00080000000032
:10002000000000000000000000000000533900083C
:10003000491D00080000000051390008753900080A
:10004000930200089302000893020008930200083C
:10005000930200089302000893020008930200082C
:10006000930200089302000893020008930200081C
:10007000930200089302000893020008930200080C
:1000800093020008930200089302000893020008FC
:100090009302000893020008930200084B1D000819
:1000A000D93900089302000893020008930200085F
:1000B000E539000893020008930200089302000843
:1000C00093020008930200089302000893020008BC
:1000D00093020008553F0008613F000893020008A2
:1000E000930200089302000893020008F139000807
:1000F000153A0008093A0008FD3900089302000883
:10010000930200089302000893020008930200087B
:10011000930200089302000893020008930200086B
:10012000930200089302000893020008930200085B
:1001300000F002F800F090F80AA090E8000C824469
:100140008344AAF10107DA4501D100F085F8AFF246
:10015000090EBAE80F0013F0010F18BFFB1A43F0A5
:1001600001031847CC520000EC520000103A24BFA3
:1001700078C878C1FAD8520724BF30C830C144BF0C
:1001800004680C607047000000230024002500264E
:10019000103A28BF78C1FBD8520728BF30C148BFEA
:1001A0000B6070476E2900F04B83702900F0F380DC
:1001B000662905F0A480652905F0A180672905F06E
:1001C0009E80612905F09D8003681B0A28BF41F0CD
:1001D0008001692900F0F882642900F0F582752910
:1001E00000F0F2826F2900F02284782900F0BF80AD
:1001F000E92900F0BD83E42900F0BA83F52900F075
:10020000B783EF2900F01F84F82900F0BE8003684F
:10021000DB0928BF41F08001632901F05380732975
:1002200001F05880E32901F06380F32901F0688030
:10023000002070471FB500F065FC0400002000217D
:1002400004F0EAFC401C60600020002104F0FAFC8D
:10025000E0601FBD10B510BD01F084F81146FFF736
:10026000E9FF04F021FB01F055F903B4FFF7F2FFB9
:1002700003BC01F099F9000009488047094800478C
:10028000FEE7FEE7FEE7FEE7FEE7FEE7FEE7FEE746
:10029000FEE7FEE704480549054A064B70470000A3
:1002A000D73900083101000890040020900A00208E
:1002B00090060020900600207CB51D4616460C00D6
:1002C000009001D02044401E074B7B442A466946DB
:1002D0000190304600F0CDFA05461CB10020694679
:1002E00000F0DAFA28467CBDD50500000FB41CB535
:1002F000084B06AA7B4469460090059800F0B9FABD
:1003000004460020694600F0C7FA20461CBC5DF890
:1003100014FB0000A1050000F0B40D46018809059A
:1003200002D5214C7C4402E01F4C7C440E34002159
:1003300000F1240608E002F00F071209E75D42EA27
:1003400003721B097754491C52EA0307F3D1027860
:100350000023120704D5702D06D009B102231134F1
:100360002246F0BC00F0D6B901231034F8E770B58E
:1003700004460D462146106800F09AF902462946C7
:100380002046BDE870400023C6E7D21D22F00703D7
:10039000D3E90023C0E70368126843F02003036039
:1003A0000823C3610023B7E7085000002DE9F05F80
:1003B000894604464FF0000ADFF874B1FB44C0F8E8
:1003C00020A02046E1688847002874D0252806D060
:1003D000D4E901219047206A401C2062F1E7002601
:1003E0005F462046E16888472028054607DB312D17
:1003F00005D2781910F8200C08B10643F1E7B007D0
:1004000001D526F00406C4F81CA00027C4F818A0E3
:100410002A2D09D0284603F0CEFD38B304EB870817
:10042000303DC8F8185019E059F8041B204604EB79
:1004300087029161E1688847012F054618D1E0697C
:10044000002820DA26F020061DE0D8F8180000EB7E
:10045000800005EB40003038C8F818002046E168FD
:100460008847054603F0A7FD0028EED1012F0AD0EA
:100470002E2D08D12046E16888477F1C0546022FB3
:1004800046F02006C4DBA069002803DA404246F0AB
:100490000106A061F00701D026F010066C2D0BD0EC
:1004A000682D09D04C2D39D06A2D35D0742D35D01A
:1004B0007A2D33D016E038E0E1682F462046884791
:1004C000B842054609D16C2F26D04FF48060E16810
:1004D000064320468847054604E06C2F1AD04FF4A7
:1004E000807006430DB3A5F14100192802D82035CC
:1004F00046F400664A462946204626604E46FFF7E7
:1005000051FE80B101280BD0F61D26F0070000F146
:10051000080956E74020E4E78020D8E70020D6E726
:1005200006F104094DE7284652E7206ABDE8F09F2E
:10053000984F00002DE9F04791460F46804604464B
:10054000002614F8015B2DB100F076F80068405DDC
:10055000C007F6D12B2D02D02D2D18D0641E4A468F
:100560003946204600F07AFA27B13968A14201D114
:10057000C7F800804FF0020471050BD540420028F7
:1005800003DD00F061F80460A007BDE8F08746F4E1
:100590008066E4E70028F8DA00F056F804606FF0AF
:1005A0000040F2E710B5431C02E010F8011B71B1E6
:1005B0008107FAD14FF0013202C88C1A8C4314EA39
:1005C000C211F9D0C01A0A0603D0C01E10BDC01A4D
:1005D00010BD0A0401D0801E10BD0902FCD0401ECF
:1005E00010BD4FF0000200B51346944696462039E0
:1005F00022BFA0E80C50A0E80C50B1F12001BFF4DC
:10060000F7AF090728BFA0E80C5048BF0CC05DF841
:1006100004EB890028BF40F8042B08BF704748BF8F
:1006200020F8022B11F0804F18BF00F8012B704703
:10063000704770477047000010B500F063FA001D66
:1006400010BD00BFD54500000048704730040020B1
:1006500070B5044685690068C10601D5302600E002
:100660002026C00707D070BDD4E90121304690474D
:10067000206A401C20626D1EF6D570BD70B5044620
:1006800085690078C00707D170BDD4E90121202019
:100690009047206A401C20626D1EF6D570BD096827
:1006A0004A0501D540B27047C905FCD500B2704774
:1006B00009684A0501D5C0B27047C905FCD580B2AA
:1006C000704770B50C460546012A05D0287880068B
:1006D00000D5EA69002302E0012305E05B1C934298
:1006E00002D2E05C0028F9D1A869E618C01AA86116
:1006F000286A184428622846FFF7AAFF04E0D5E9D3
:10070000012114F8010B9047B442F8D32846FFF7B3
:10071000B5FF70BD2DE9F0470D4699469246044657
:1007200000F124080168880604D5E06921F0100171
:10073000216000E00120A84201DD471B00E0002706
:10074000A1697A1902EB0900081AA0612078C00695
:1007500002D42046FFF77CFF002608E0D4E90121FF
:100760001AF806009047206A401C761C20624E450D
:10077000F4DB2078C0060AD52046FFF769FF06E0C3
:10078000D4E9012130209047206A401C2062381EA5
:10079000A7F10107F4DC07E0D4E9012118F805000E
:1007A0009047206A401C2062281EA5F10105F3DC59
:1007B0002046FFF763FF2078000602D50220BDE83F
:1007C000F0870120FBE700002DE9F04106460024F8
:1007D00010687529314616A510D0FFF760FF002874
:1007E00002DA404213A507E031688A0701D512A555
:1007F00002E0490704D511A5012401E0FFF758FFE5
:1008000000210A2206F1240709E0B0FBF2FCB0FB4C
:10081000F2F302FB1C00303078541846491C0028C3
:10082000F3D123462A463046BDE8F041FFF772BFB8
:10083000000000002D0000002B0000002000000040
:1008400011680268006A530501D508700AE0D305F3
:1008500001D5088006E0130603D5C217C1E90002DE
:1008600000E008600120704701694A1C02610878B5
:10087000704700B58FB0CDE90131002105910549E0
:100880007944CDE9031011466846FFF78FFD0FB09C
:1008900000BD0000E5FFFFFF0A6802F8010B0A60D7
:1008A0007047D1E900239A4202D2531C0B601070AA
:1008B000704700002DE9FF5F15468A460446DFF8C1
:1008C000AC80F8440027D8E900103E46CDE900107E
:1008D00010E03AF816106A4602A800F023FD411C09
:1008E00007D02178890603D5E269391891420DD8DD
:1008F0000744761C2078800602D5E069B84205DD01
:10090000AE42E6DB3AF816000028E2D1A069C01B2F
:10091000A0612046FFF79CFED8E90010CDE9001049
:10092000002017E03AF818106A4602A800F0FAFC16
:10093000B0F1FF3F81460BD000250DF1080B05E01B
:10094000D4E901211BF8050090476D1C4D45F7D3F4
:1009500008F10100B0428046E4DB206A384420629E
:100960002046FFF78BFEBDE8FF9F0000A64A00006F
:100970002DE9F0418046D21D22F007020025D2E980
:100980000002F52915A614D0011E72F1000106DA45
:100990000023D0EB030063EB020211A608E0D8F8B5
:1009A00000108B0701D50FA602E0490701D50EA65E
:1009B00001251146002408F1240704E000F0A6F800
:1009C00030323A55641C50EA0102F7D12B463246C8
:1009D00021464046BDE8F041FFF79CBE0000000004
:1009E0002D0000002B0000002000000030B400218A
:1009F00000F1240408E002F00705D208303542EA8D
:100A00004372DB086554491C52EA0305F3D10468BC
:100A1000002310A2250707D5A40600D421B1C4697C
:100A200001230DA2641EC46130BCFFF773BE10B574
:100A3000044621461068FFF73BFE02462046BDE80B
:100A400010400023D2E7D21D22F00701D1E9002394
:100A5000CCE7000000000000300000002DE9F05F4E
:100A6000824615468B4600270AF10104B9460078F4
:100A7000302801D09DB113E014F8010B012778282C
:100A800003D0582801D045B10AE00DB1102D07D18F
:100A9000002714F8010B102502E0082500E00A25C4
:100AA0000026B0460EE005FB080005FB06F1012715
:100AB0001FFA80F801EB1046B6F5803F00D3B94627
:100AC00014F8010B294600F01FFC0028EBDABBF1FB
:100AD000000F05D00FB1641E00E05446CBF8004073
:100AE000B9F1000F06D0FFF7AFFD02210160C81E6B
:100AF000BDE8F09F48EA0640FAE70000004870476A
:100B000030040020004870475004002030B5B0F198
:100B10000A024FEA900E71F100034EEA817EB0EBBB
:100B20000E0061EB91014FEA101E4EEA017E10EBC0
:100B30000E0041EB11114FEA102E4EEA016E10EB40
:100B40000E0041EB11214FEA104E4EEA014E10EB20
:100B50000E0041EB1141401841F100014FEAD00075
:100B600040EA41704FEAD10110EB80054FEA810461
:100B700044EA907444EB01046D1944EB0404521BE5
:100B8000A3414FF0000348BF0A3200D530BD401CDE
:100B900041F1000130BD70472DE9FF4F0C461E4664
:100BA0004FF0FF378BB0D2E90001DDF860800A908A
:100BB0008A46C1F30A5505B93D46002108464FF063
:100BC0000000BAF1000F00F4400005DA00EB8000ED
:100BD0004FF4400101EA50004FEA9059B9F1010F7A
:100BE00000DDB9460A9850EA4A000ED044F610508B
:100BF000A5F2FF3545432F14B8F1000F1ED0754202
:100C0000291E1EDDC9F100021CE0B8F1010F4FF0F2
:100C1000000001D0302103E0F24305E02154401CE4
:100C2000B042FBDB30460022002121540B99C1F871
:100C30000880C1E900200FB0BDE8F08FBD1B6D1C1E
:100C4000DEE74A4600DA694206A800F0F1FB06AB8F
:100C500093E8070003AB83E8070050460A9900F0C9
:100C6000AAFC8DE80700A0F500501F3800900398FB
:100C7000002D0ADD42F21F014A460844002303A961
:100C80000390684600F013FF09E0A0F500504A46C3
:100C90001F38002303A90390684600F01DFF8DE86C
:100CA00007000004000C03D04FF0FF30410800E0C3
:100CB0001046B8F1000F03D00022009215461EE046
:100CC000751E05D4FFF722FF303262556D1EF9D52F
:100CD000B3460122084302D000227F1C04E02078A2
:100CE000302801D100227F1E002A099784D01DE000
:100CF000112D07DAFFF70AFF303262556D1C50EAFA
:100D00000102F5D1084302D00098C8B10EE00021DD
:100D1000681E05E0235C625C63542254401E491C3B
:100D20008142F7DBAB46A81B401E0990002004F867
:100D30000B000B98099AC0F80880C0E9002B7AE7ED
:100D400011264FF0000857E72DE9F04F884604467A
:100D5000D21D22F0070191B0D1E90001CDE90A01CD
:100D600003F005F902460B98C00F01D02D2007E0D3
:100D70002068810701D52B2002E0202101EAC00074
:100D8000032A099001D0072A05DB03464146204685
:100D900000F00EFB0BE12078800601D5E06900E051
:100DA0000620B8F1650F814606D0B8F1660F18D05D
:100DB000B8F1670F70D131E00020B9F1110F009048
:100DC00001DB112301E009F101030AAA01A90CA822
:100DD000FFF7E2FEDDE90C70002609F1010583460C
:100DE00047E001204B4600904FF000470AAA01A9B6
:100DF0000CA8FFF7D1FEDDE90DB00C995D46002689
:100E000010B909F101000D18B9EB050003D4C0F1C8
:100E1000FF3609F10105A5EB09002BE0B9F1010F3F
:100E200001DA4FF001090020B9F1110F0090484696
:100E300001DD112300E003460AAA01A90CA8FFF76F
:100E4000ABFEDDE90C704D46002683462078000796
:100E50000AD4AB4500DA5D4601A8012D04DD411935
:100E600011F8011C302907D04F4502DA17F1040FA1
:100E700004DA012082460FE06D1EEEE7002F02DC4F
:100E8000ED1B3E4403E0781CA84200DD7D1CB81B2E
:100E900000F1010A4FF000472078000703D4AA456B
:100EA00001DB4FF0FF3A0021B7F1004F0DF143088D
:100EB0008DF8431024D002202B23002F01DA7F422B
:100EC0002D230A21021EA0F1010000DC5FB197FB77
:100ED000F1FC97FBF1F201FB1C7C17460CF1300C86
:100EE00008F801CDEEE7A8F101000370218809059B
:100EF00001D5452100E06521A0F1010800F8011CA1
:100F000009980FA9A1EB0807FF1D00B101204119A5
:100F100001EBEA70A1693844081A401EA0612078EC
:100F2000C00602D42046FFF793FB099828B1D4E904
:100F300001219047206A401C20622078C00622D5FB
:100F40002046FFF785FB1EE0002E04DBB34502DDE3
:100F500001A8805D00E03020D4E901219047206A9B
:100F6000401C2062761CAAF101005FEA000A0AD147
:100F7000FFF7C8FDC0680168405CD4E901219047D3
:100F8000206A401C2062281EA5F10105DCDC07E078
:100F9000D4E9012118F8010B9047206A401C206217
:100FA000381EA7F10107F3DC2046FFF767FB03209B
:100FB00011B041E62DE9F04F04460D46D21D22F056
:100FC000070089B0D0E900974846394602F0CFFFC4
:100FD0000246F80F01D02D2307E02068810701D5D4
:100FE0002B2302E0202101EAC0038DF820300BB151
:100FF000012000E00020032A824601D0072A04DBFA
:101000002946204600F0D4F93FE12078800601D43B
:101010000D2500E0E569C7F30A560D2D49DA0021D8
:101020004FEA175B08464FF00000002F00F4400025
:1010300007DA00EB80004FF4400100EBD07001EACA
:1010400060008115012901DD4FF0FF3100224FEAD8
:10105000850CBCF1180F06D31346ACF118004FF005
:101060008052C24003E04FF4801323FA0CF30CF1DA
:101070000C0CBCF1200F04D3ACF1200C09FA0CF0DD
:1010800001E007FA0CF000294FF0004801DD18B923
:101090000FE00ED140450CD319EB02095F4121B995
:1010A000404502D19F4329EA0209BBEB175F00D0FC
:1010B000761C2088000502D57B48784402E07A48F7
:1010C0007844193808AA302302F80A30037C0AF160
:1010D0000101002E0AF1020A53546A4602DC4FF065
:1010E000300101E04FF031014FF001088DF80010A0
:1010F00002D0A6F2FF3603E059EA470100D06B4E5A
:10110000002D02DC2178090704D54FF002082E21BA
:101110008DF80110C44600210BE0C7F303433F01E3
:10112000C35C491C6D1E02F80830052908F101084E
:1011300001DA002DF1DC00210CE000EB1973491CF1
:101140001B786D1E082902F808304FEA091908F1CA
:10115000010801DA002DF0DC21688B0602D516E0CB
:10116000A8F10108E04505DD02EB080313F8013C96
:10117000302BF5D0B8F1000F09DD02EB080313F8AE
:10118000013C2E2B03D1090701D4A8F10108002D41
:1011900005DD3E2102F808106D1E08F10108407CB3
:1011A000002E02F8080008F1010804DA2D2076422A
:1011B00002F8080002E02B2002F808000A214FF490
:1011C0007A70864208F101080BDB96FBF0F33033AE
:1011D00002F8083096FBF0F308F1010800FB1366F3
:1011E00001E0642E0CDB642096FBF0F3303302F850
:1011F000083096FBF0F308F1010800FB136601E0EC
:101200000A2E06DB96FBF1F0303002F8080008F1F8
:10121000010896FBF1F001FB1060303002F8080085
:10122000A16908F1010808EB050202EB0A00081A9F
:10123000A0612078C00602D42046FFF709FA216A8F
:1012400008AE01EB0A00206204E0D4E9012116F89F
:10125000010B9047BAF1010AF7D22078C00602D5F7
:101260002046FFF7F5F96E4609E016F8010B3E2817
:101270000FD0D4E901219047206A401C2062B8F1C8
:101280000108F2D22046FFF7F9F909B00320BDE8C2
:10129000F08F206A2844206203E0D4E90121302045
:1012A00090476D1EEBD3F8E7C942000002FCFFFF38
:1012B00010B5436913B1AFF3008001E0FFF701FA05
:1012C000012010BD127800F124010A7000224A703A
:1012D0000122EDE711684FF0FF32E9E710B54369ED
:1012E00013B1AFF3008001E0FFF7E4FA012010BD75
:1012F000128800F1240182840022C2840122EDE7D9
:1013000011684FF0FF32E9E73A2800D2303820F078
:101310002002412A01D3A2F13700884201D34FF0C5
:10132000FF30704770B516460C460546FFF784F946
:10133000036893F80101012806D0FF2C0FD8185D2F
:1013400068B101202C7070BDD3F8070132462146E8
:1013500003F2071303442846BDE8704018474FF0D6
:10136000FF3070BD7546FFF7C9FBAE460500694604
:10137000534620F00700854618B020B5FEF78AFFD7
:10138000BDE820404FF000064FF000074FF0000886
:101390004FF0000B21F00701AC46ACE8C009ACE807
:1013A000C009ACE8C009ACE8C0098D467047000030
:1013B0002DE9F0411F46044603260168072A01F47F
:1013C000006004DB08B116A505E016A503E008B12E
:1013D00015A500E015A521F010002060A069C01E31
:1013E000A0610FB1401EA0612046FFF731F94FB157
:1013F000D4E9012138469047206A401C2062C01C75
:10140000206206E0206AFAE7D4E9012115F8010B11
:101410009047761EF8D22046FFF730F9BDE8F081FC
:101420004E414E006E616E00494E4600696E660088
:101430002DE9F047814616468AB0354878440DC8F4
:101440008DE80D0032487844801C03AC0DC884E858
:101450000D0041F69B300844372190FBF1F290FBE0
:10146000F1F5A5F1800501FB12041B3C02D5644295
:10147000012000E00020DFF898A080460027FA4411
:10148000AAF1BE0A0EE0E0070AD03246684607EB32
:10149000470101230AEB810100F01EFB8DE80700E4
:1014A00064107F1C002CEED1194F7F44AE3F19E031
:1014B000E80715D007EB04100DF1180A90E80E00AC
:1014C0008AE80E00C068F04201D1981908903246AF
:1014D000012306A903A800F0FFFA03AB83E8070085
:1014E0006D10641C002DE3D14FF0010332466946B4
:1014F000B8F1000F03A802D000F0D9FA01E000F023
:10150000EBFAC9E90001C9F808200AB0BDE8F08784
:10151000D83F000010B50446AFF300802046BDE878
:101520001040FEF7A2BE00004FF0013C50F8042B23
:1015300051F8043B9A4221D1A2EB0C03934313EAE6
:10154000CC1317D150F8042B51F8043B9A4215D113
:10155000A2EB0C03934313EACC130BD150F8042BEA
:1015600051F8043B9A4209D1A2EB0C03934313EACE
:10157000CC13DBD04FF00000704700BFD01A01BA87
:10158000B1FA81F101F0180122FA01F0CB40C1F16A
:101590002001DBB2C0B2C01A2CFA01F3D11A914378
:1015A00011EAC311E6D1704701491820ABBEFEE72E
:1015B0002600020070475FEA400C08BF91F0000F60
:1015C0004FEA8C234FEAC12243EA51514FEA1C50A3
:1015D00018BF00F5F0404FEA300018BF41F000415D
:1015E0005FEA6C5C00F02980BCF1FF3F08BF40F06F
:1015F00080407047130C06BF12044FF0100C4FF0E0
:10160000000C130E04BF12020CF1080C130F04BFE0
:1016100012010CF1040C930F04BF92000CF1020CA8
:10162000D30F04BF52000CF1010C11464FF0000221
:10163000A0F11F00A0EB0C00704711F0004F08BF95
:10164000704731F000413FF4D5AF0B0C06BF0904E1
:101650004FF0100C4FF0000C0B0E04BF09020CF100
:10166000080C0B0F04BF09010CF1040C8B0F04BF15
:1016700089000CF1020CCB0F04BF49000CF1010CE6
:10168000CCF12003A0EB0C0022FA03F302FA0CF2D7
:1016900041EA030100F10100704720F07F4C80EA2D
:1016A000030023F07F47ACEB070303F57C5300F006
:1016B000004003F1FF032DE980494FEA154B09B4BF
:1016C0004FEA144325EA0B4E24EA03480FF204269E
:1016D00006EB132749083E785FEA320203FB0667F0
:1016E000C7F5000707FB06F64FEA54374FEAD64620
:1016F00006F1020607FB066CCCF1005C4FEA1C47C2
:101700002CEA074C07FB06F40CFB06F504EB154628
:101710004FEA961634BF00204FF000404FEAD13711
:1017200006FB07FC4FEA1C4C0CFB0BF7D21B03FB20
:101730000CF761EB07010CFB0EF7B0EB074072EB07
:1017400017420CFB08F734BFA2EB0742B2EB07428B
:1017500061EB17414FEA0C444FEA910706FB07FC87
:101760004FEA1C4C0CFB0BF7B0EBC74072EB573247
:1017700003FB0CF734BFA2EBC742B2EBC74261EBED
:1017800057310CFB0EF7B0EBC70072EB57720CFB36
:1017900008F734BFA2EBC702B2EBC70261EB577187
:1017A000039F4FEA816141EA921104EBCC044FEAB6
:1017B000D1374FEA826206FB07FC42EA90124FEAF9
:1017C00080604FEA1C4C0CFB0BF7D21B03FB0CF7A1
:1017D00061EB07010CFB0EF7B0EB074072EB174211
:1017E0000CFB08F734BFA2EB0742B2EB074261EBF8
:1017F00017414FEA8C554FEA910704EB9C2406FBF6
:1018000007FC4FEA1C4C0CFB0BF7B0EBC74072EB2C
:10181000573203FB0CF734BFA2EBC742B2EBC7420F
:1018200061EB57310CFB0EF7B0EBC70072EB577250
:101830000CFB08F734BFA2EBC702B2EBC70261EBA7
:10184000577115EB4C254FEA816141EA92114FEA3D
:1018500082624FEAD13742EA901206FB07FC44F15C
:1018600000044FEA80604FEA1C4C0CFB0BF7D21BC4
:1018700003FB0CF761EB07010CFB0EF7B0EB074025
:1018800072EB17420CFB08F734BFA2EB0742B2EB36
:10189000074261EB174115EB1C154FEA813141EA14
:1018A00092414FEA823242EA90424FEA80304FEA58
:1018B0000C7644F1000448EA03434EEA0B484FF02B
:1018C000000EB2EB080C71EB030724BF62463946E9
:1018D0004EEB0E0E4FF0000B0018524149414BEBFE
:1018E0000B0BB2EB080C71EB03077BF1000B24BF71
:1018F000624639464EEB0E0E4FF0000B0018524177
:1019000049414BEB0B0BB2EB080C71EB03077BF17E
:10191000000B24BF624639464EEB0E0E51EA020719
:1019200018BF46F0010616EB0E7655F1000254F191
:10193000000103D5BDE88901BDE80088BDE8890143
:10194000BDE80048B619524141EB0101A3F1010382
:10195000704780807F7E7D7C7B7A7978777676751C
:101960007473727171706F6E6E6D6C6C6B6A6A6994
:101970006868676666656464636362616160605F2E
:101980005F5E5E5D5D5C5C5B5B5A5A5959585857A7
:10199000575656555555545453535252525151500F
:1019A00050504F4F4F4E4E4D4D4D4C4C4C4B4B4B62
:1019B0004A4A4A49494948484847474747464646A8
:1019C00045454544444444434343434242424241E3
:1019D0004141002B9C4630D477002BD01CB54FEAF8
:1019E000370703B44FF010004FF01001BAF1000FA9
:1019F00006D0BCF1000FDCBF40F0080040F0080149
:101A00004FF000000FBCBDE810400BF1010BBBF123
:101A1000010F08BF5FEA170722BF12F1010211F19F
:101A200001014FF0004143F1000300F0004043EAA0
:101A300000007047F9D35708D0E746EA064613F18D
:101A4000400F4FEA16461FDD13F1200FDFBF16438C
:101A50000A46002120335B42BED0C3F1200746EA8C
:101A6000064602FA07F74FEA164646EA0706C3F1AA
:101A7000200722FA03F201FA07F721FA03F14FF0E7
:101A8000000342EA0702A7E746EA020646EA0646DC
:101A90004FEA164646EA0106BCBF46EA0646360C41
:101AA0004FF000034FF000024FF0000194E72DE9E2
:101AB000804C9A46934670B491E8380007C831EAE2
:101AC000400C48BF34EA430C03D5FFF7E6FDFFF7AF
:101AD00080FFF0BCBDE8008C2DE9804C9A4693460F
:101AE00070B491E8380007C810F0804F08BF13F0B9
:101AF000804F03D100F005F8FFF76BFFF0BCBDE8A5
:101B0000008C20F07F4780EA030023F07F4C07EB36
:101B10000C03A3F57C5300F00040A3F1FE0392F008
:101B2000000F00F0B38095F0000F00F077802DE9F2
:101B300001494FEA11404FEA144621EA004800FBF0
:101B400006FC24EA064708FB06F607FB08F800FB3C
:101B500007F718EB06484CEB164C4FEA124B18EB04
:101B600007484FEA15464CEB174022EA0B4E0BFB99
:101B700006FC25EA06470EFB06F607FB0EFE0BFBEE
:101B800007F71EEB064E4CEB164C4FF000061EEB13
:101B9000074E4CEB174B18EB0B0840F1000018EB0D
:101BA0000E0B58EB000840F100008F1A4FF00001B7
:101BB0003CBFC943661B14BFB5EB040C00213CBFFE
:101BC000C943F61B4FEA17444EEA8E0E27EA044536
:101BD0004FEA1C4704FB07622CEA074C05FB07F79A
:101BE0000CFB05F604FB0CFC16EB074642EB174218
:101BF00016EB0C4642EB1C421BEB060658EB0202AE
:101C0000414146EA9E0601D5BDE80189B619524117
:101C100041EB0101A3F10103BDE801894FEA14453D
:101C20004FEA114724EA054621EA074C05FB07F471
:101C300006FB07F70CFB06F105FB0CFC11EB07415B
:101C400044EB17444FEA124711EB0C4144EB1C44A0
:101C500022EA074C05FB07F206FB07F70CFB06F62A
:101C600005FB0CFC16EB074642EB174216EB0C4645
:101C700042EB1C456A1854F1000148BF7047B61981
:101C8000524141EB0101A3F10103704795F0000FB0
:101C900037D04FEA11424FEA144721EA024624EABC
:101CA000074C02FB07F106FB07F70CFB06F402FBEF
:101CB0000CFC14EB074441EB17414FEA154714EBBA
:101CC0000C4441EB1C4125EA074C02FB07F506FBDF
:101CD00007F70CFB06F602FB0CFC16EB074645EB80
:101CE000174516EB0C4645EB1C42121951F1000149
:101CF00048BF7047B619524141EB0101A3F10103FE
:101D000070474FEA14454FEA114724EA054621EA95
:101D1000074C05FB07F106FB07F70CFB06F24FF03B
:101D2000000605FB0CFC12EB074241EB174112EBDE
:101D30000C4251EB1C4148BF7047921841EB010126
:101D4000A3F101037047FEE77047202000F0E2B8DE
:101D500072B6FEE710B590F821100022022905D0D6
:101D60000421816380F82020012010BD01680B68E8
:101D700023F00E030B6001680B6823F001030B6076
:101D800090F84030C46B012101FA03F3636080F8DE
:101D9000211080F82020104610BD00002DE9F05FD2
:101DA00090F821100024022903D00421816301242A
:101DB00085E001680A6822F00E020A6001680A687C
:101DC00022F001020A603F4E3E4FB215DFF8F4C028
:101DD000DFF8F090DFF8ECA0DFF8E8B0DFF8E4E03F
:101DE0000168783F13011502ACF1640CA9F15009A8
:101DF000AAF13C0AABF1280BAEF1140E4FF4801897
:101E0000B14227D9B9420ED0614512D049451DD003
:101E1000514518D0594518D0714501D1424615E0B9
:101E2000294EB14201D1012210E0274E1436B142B1
:101E300001D110220AE0244E2836B14206D0224AAF
:101E40003C32914201D11A4600E02A461E49091F40
:101E50000A602BE0B94213D0614517D0494522D022
:101E600051451DD059451DD0714501D142461AE05A
:101E7000B14202D14FF0807215E0134EB14201D150
:101E8000012210E0104E1436B14201D110220AE0B6
:101E90000D4E2836B14206D00B4A3C32914201D158
:101EA0001A4600E02A46074980394A60012180F835
:101EB0002110002180F82010416B01B18847204695
:101EC000BDE8F09F800002400804024070B504465F
:101ED00000F036F90546601C02D00448007804443E
:101EE00000F02EF9401BA042FAD370BD2C00002058
:101EF00010B520280BD106490860172000F07EF9A4
:101F000001F028FDBDE81040172000F088B910BD91
:101F100014040140044910B50A68024202D0086066
:101F2000FFF7E6FF10BD0000140401402DE9F84F53
:101F3000DFF8C8910024A9F1040B23460F2709F10B
:101F4000040AABF1040ED1E00125A54006EA050222
:101F5000AA4276D1DFF8A8C14E68A6EB0C08664508
:101F60002BD00DDC032E34D005DC36B3012E19D076
:101F7000022E2FD11BE0112E16D0122E2AD119E0DD
:101F8000B8F5881F19D006DCB8F5803F15D0B8F534
:101F9000801F1FD111E0B8F5001F0ED0B8F5041F47
:101FA00018D10AE0CB6815E0CB681B1D12E0CB68A6
:101FB00008330FE0CB680C330CE08B682BB1012B9E
:101FC0004FF0080303D0456104E0042302E00561FB
:101FD00000E00023FF2A01D8064601E000F10406D4
:101FE0004FEA840501D9A5F12005D6F8008007FA4B
:101FF00005FC28EA0C0803FA05F548EA0508C6F8C6
:1020000000804D68ED0070D53E4DAE6946F001068A
:10201000AE61AD6924F0030605F0010500953A4D67
:1020200006EB050CDCF80850A607360F07FA06F891
:1020300025EA0805DFF8D480404503D14FF00008B9
:1020400025E052E0DFF8C880404502D14FF001089A
:102050001DE0DFF8C080404502D14FF0020816E0D5
:10206000DFF8B480404502D14FF003080FE0DFF8FD
:10207000AC80404502D14FF0040808E0DFF8A080B2
:10208000404502D14FF0050801E04FF0060808FA7C
:1020900006F848EA0508CCF808804D68D9F80060D1
:1020A000ED024D4601D5164300E096432E604D6883
:1020B000DAF80060AD02554601D5164300E09643BC
:1020C0002E604D68DBF80060AD035D4601D5164318
:1020D00000E096432E604D68DEF80060ED03754623
:1020E00001D5164300E096432E60641C0A6816462C
:1020F000E2407FF429AFBDE8F88F000008040140FA
:1021000000001110001002400000014000080140D2
:10211000000C014000100140001401400018014073
:10212000001C0140C26821EA02030A4043EA02415E
:10213000016170470AB1016170470904FBE70000C3
:1021400001488068704700002C0000200248816828
:1021500002781144816070472C000020074810B5B8
:10216000016841F010010160032000F085F80F20A4
:1021700000F006F800F024F8002010BD0020024016
:1021800070B50D4D04464FF47A712878B1FBF0F02C
:102190000A490968B1FBF0F000F00AFB48B9102CBD
:1021A00007D200222146501E00F046F800206C6045
:1021B00070BD012070BD00002C0000203800002000
:1021C0000C4808B5816941F001018161816901F024
:1021D00001010091C16941F08051C161C06900F005
:1021E000805000900448416821F0E06141F00071A6
:1021F000416008BD001002400000014000280DDBD6
:1022000000F01F02012191404009800000F1E02010
:10221000C0F88011BFF34F8FBFF36F8F7047002856
:1022200009DB00F01F02012191404009800000F10C
:10223000E020C0F800117047F0B40E4B1B680C464C
:10224000C3F30223C3F10705042D00D90425191D8A
:10225000072901D2002300E0DB1E012606FA05F162
:10226000491E214099409E40761E16403143F0BCE5
:1022700001F091BE0CED00E0064900F0070208688D
:102280004FF6FF03184040EA0220034A104308605B
:10229000704700000CED00E00000FA0590FAA0F095
:1022A000044AB0FA80F002EB80000121C0F88010EF
:1022B0007047000000000E420548016841F002012D
:1022C00001600448016841F00401016030BF7047BB
:1022D0000070004010ED00E02DE9F0470F460500CA
:1022E00061D0434E306800F00700B84209D2306830
:1022F00020F0070038433060306800F00700B84233
:1023000051D128683B4C810712D5400703D560683E
:1023100040F4E06060602878000703D5606840F40E
:10232000605060606068A96820F0F0000843606059
:102330002878C00728D06868012810D021680228B2
:1023400010D0890700292EDA616821F003010143CA
:102350006160FFF7F5FE804641F288390DE02168A3
:102360008903EFE78901EDE7FFF7EAFEA0EB08013B
:10237000494502D90320BDE8F0876068696800F02C
:102380000C00B0EB810FEFD1306800F00700B842CD
:102390000BD9306820F0070038433060306800F017
:1023A0000700B84201D00120E5E72878400705D5AD
:1023B0006068E96820F4E0600843606028780007FE
:1023C00006D56068296920F4605040EAC100606069
:1023D00000F038F86168084AC1F30311515CC84045
:1023E0000649086006480068FFF7CAFE0020C2E7F9
:1023F000002002400010024018530008380000205E
:10240000300000200448054900684968044AC1F3C7
:102410000221515CC8407047380000200010024083
:10242000285300080448054900684968044AC1F374
:10243000C221515CC84070473800002000100240A3
:10244000285300080E4A51680E4801F00C03042B73
:1024500011D0082B0FD10C48C1F38343C903C05CD2
:102460000AD55168084AC1F34041921E515C054AA1
:102470005043B0FBF1F070470449484370470000F7
:102480000010024000127A000853000800093D00C5
:102490002DE9F84F040070D02078C04DC00749D016
:1024A0006868C0F38100012807D06868C0F3810024
:1024B000022809D16868C00306D52868800339D589
:1024C00060680028E7D035E06068B0F5803F0BD049
:1024D00010B1B0F5A02F11D0286820F4803028600A
:1024E000286820F4802002E0286840F480302860CA
:1024F000606890B1FFF724FE06460AE0286840F4C1
:1025000080202860F0E700BFFFF71AFE801B6428D8
:1025100073D828688003F7D50CE0FFF711FE064654
:1025200005E000BFFFF70CFE801B6428F0D8286888
:102530008003F7D420789A4E80074FF001094FF0BE
:10254000000839D5686810F00C0F07D06868C0F330
:102550008100022809D16868C00306D42868800772
:1025600014D52069012808D110E02069B0B1C6F85F
:102570000090FFF7E5FD074605E00AE1FFF7E0FD03
:10258000C01B0228C4D828688007F7D5286861696D
:1025900020F0F80040EAC10028600DE0C6F8008095
:1025A000FFF7CEFD074604E0FFF7CAFDC01B022877
:1025B00023D828688007F7D4207800072CD57948DD
:1025C000A169D9B1C0F80090FFF7BAFD074604E051
:1025D000FFF7B6FDC01B02280FD8686A8007F7D541
:1025E00071484FF4FA510068B0FBF1F0009000BF61
:1025F0000098411E0091FAD20EE080E0C0F8008001
:10260000FFF79EFD074604E0FFF79AFDC01B022876
:1026100075D8686A8007F7D42078400760D5E869E4
:102620000027C00008D4E86940F08050E861E869FC
:10263000012700F0805000905C480168C90513D460
:102640000168834641F480710160FFF779FD82469D
:1026500006E000BFFFF774FDA0EB0A0064284ED827
:10266000DBF80000C005F5D5E06801280AD008B104
:10267000052813D0286A20F001002862286A20F07B
:10268000040002E0286A40F001002862E06841F29C
:10269000883B98B1FFF754FD82460BE0286A40F072
:1026A00004002862EEE700BFFFF74AFDA0EB0A0135
:1026B00059455AD8286A8007F6D50CE0FFF740FD47
:1026C000824605E0FFF73CFDA0EB0A0159454CD8D6
:1026D000286A8007F6D41FB1E86920F08050E861CD
:1026E000E06988B36968C1F38101022944D00228F6
:1026F000C6F8608004D0FFF723FD044638E034E0DC
:10270000FFF71EFD074604E0FFF71AFDC01B022875
:102710002BD828688001F7D4206AB0F5803F05D116
:102720006868A16820F4003008436860D4E90801B3
:102730000843696821F4741108436860C6F8609022
:10274000FFF7FEFC044606E025E000BFFFF7F8FCBB
:10275000001B022809D828688001F7D51BE000BFBC
:10276000FFF7EEFC001B022802D90320BDE8F88F1A
:1027700028688001F4D40EE00128F7D06868226A46
:1027800000F48031914204D1616A00F470108842F3
:1027900001D00120EAE70020E8E700000010024035
:1027A0000000424280044242380000200070004095
:1027B00010B5401EB0F1807F01D3012010BD4FF055
:1027C000E02460610F21601701F0E5FB0020A061AB
:1027D00007202061002010BD7047704710B590F8A9
:1027E0003C20012A22D0012280F83C20CA688C6853
:1027F00022F4407222434C6822F4806222430C6827
:1028000022F4006222430C6922F4805222434C6974
:1028100022F400522243C969002322F480420A4371
:1028200001684A6480F83C30002010BD022010BDD1
:1028300070B590F83C20012A2CD0012480F83C404F
:10284000022280F83D2003685A689D6822F07006D5
:102850000A6832435A60104B02689A420ED00F4BFE
:102860009A420BD0B2F1804F08D00D4B9A4205D05E
:102870000C4B9A4202D00C4B9A4204D1496825F085
:1028800080031943916080F83D40002180F83C109E
:10289000084670BD022070BD002C0140003401408C
:1028A0000004004000080040000C004010B5040087
:1028B00003D094F83D0010B107E0012010BD0020C6
:1028C00084F83C00204600F01FF8022084F83D0008
:1028D000211D206801F0A4F8012084F8460084F846
:1028E0003E0084F83F0084F8400084F8410084F8FA
:1028F000420084F8430084F8440084F8450084F8DA
:102900003D00002010BD000008B52A4A01682A4891
:1029100091420ED1816941F4006181618069002298
:1029200000F40060009011461820FFF785FC182085
:102930002BE0B1F1804F2CD0204A914238D18169EF
:1029400041F4005181618069002200F40050009040
:1029500011462B20FFF770FC2B20FFF760FC0022B4
:1029600011462C20FFF768FC2C20FFF758FC0022B2
:1029700011462D20FFF760FC2D20FFF750FC0022B0
:1029800011462E20FFF758FC2E20BDE80840FFF727
:1029900046BCC16941F00101C161C069002200F07B
:1029A0000100009011461C20FFF746FC1C20ECE7BC
:1029B00008BD0000002C014000100240003401401E
:1029C00090F83D10012901D001207047022180F8C4
:1029D0003D100168CA6842F00102CA6000680E49F1
:1029E00088420ED00D4988420BD0B0F1804F08D0FC
:1029F0000B49884205D00B49884202D00A498842D7
:102A000004D1816801F00701062903D0016841F073
:102A10000101016000207047002C0140003401409A
:102A20000004004000080040000C004070B504465F
:102A300090F83C000025012817D0012684F83C605E
:102A4000022084F83D002068826822F0770222F498
:102A50007F4282600868502838D00DDC20284FD093
:102A600005DC90B3102811D14AE0022070BD302857
:102A700046D040280AD13BE060282FD070280DD0E6
:102A8000B0F5805F03D0B0F5005F12D0012584F867
:102A90003D60002084F83C00284670BDCB68D1E939
:102AA0000121206801F00FF82068816841F077016A
:102AB00009E0CB68D1E90121206801F004F8206821
:102AC000816841F480418160E1E719E0CA684968A2
:102AD000206801F0CDF85021206806E0CA684968F6
:102AE000206801F0D6F86021206800F0F6FFCEE7FC
:102AF000CA684968206801F0BBF840212068F4E703
:102B0000226801461046F0E7704770B50446006839
:102B100001694FF00005C943890715D4C168C9434D
:102B2000890711D4E91E016101202077206880699E
:102B30008007204602D0FFF7E7FF04E000F033F9FA
:102B4000204600F0F3F9257720680169C943490759
:102B500017D4C168C943490713D46FF00401016158
:102B6000022020772068806910F4407F204602D040
:102B7000FFF7CAFF04E000F016F9204600F0D6F98E
:102B8000257720680169C943090716D4C168C9437C
:102B9000090712D46FF00801016104202077206832
:102BA000C0698007204602D0FFF7AEFF04E000F0C6
:102BB000FAF8204600F0BAF9257720680169C94380
:102BC000C90617D4C168C943C90613D46FF01001F0
:102BD0000161082020772068C06910F4407F2046FA
:102BE00002D0FFF791FF04E000F0DDF8204600F08E
:102BF0009DF9257720680169C943C90708D1C168D3
:102C0000C943C90704D1891E0161204600F0EAF9D1
:102C100020680169C943090609D4C168C943090686
:102C200005D46FF0800101612046FFF7D5FD2068D3
:102C30000169C943490609D4C168C943490605D495
:102C40006FF040010161204600F046FA20680169FA
:102C5000C94389060BD4C168C943890607D46FF0FC
:102C6000200101612046BDE87040FFF7B6BD70BD90
:102C700030B585B000210091019102910391006867
:102C80002D4A2E4902242E4D90420FD1886940F0E2
:102C9000040088618869694600F0040004904FF4DC
:102CA0001060CDE900042846039414E0B0F1804F91
:102CB00015D0244A904210D1886940F010008861F4
:102CC0008869694600F0100004904FF47070CDE9F7
:102CD00000041D480394FFF729F905B030BD886949
:102CE00040F008008861886900F008000490886955
:102CF00040F0040088618869694600F0040004908F
:102D000040F60840CDE9000410480394FFF70EF99F
:102D10004FF40040CDE90004694628460394FFF7CC
:102D200005F90B48416821F4407141F0E06141F43C
:102D300040714160D1E70000002C014000100240CA
:102D4000000801400034014000100140000C014027
:102D50000000014070B5044690F83C0000250128B1
:102D60000FD0012084F83C006AB1042A0FD0082A51
:102D700011D00C2A13D00125002084F83C002846ED
:102D800070BD022070BD206800F0B0FEF4E720683E
:102D900000F0DCFEF0E7206800F00EFFECE72068B2
:102DA00000F03EFFE8E7704710B5040003D094F848
:102DB0003D0010B107E0012010BD002084F83C0068
:102DC000204600F01EF8022084F83D00211D2068F6
:102DD00000F026FE012084F8460084F83E0084F8C6
:102DE0003F0084F8400084F8410084F8420084F8F1
:102DF000430084F8440084F8450084F83D00002036
:102E000010BD704770B5044690F83C0000260D4692
:102E100001280FD0012084F83C006AB1042A1DD09B
:102E2000082A2FD00C2A3FD00126002084F83C002D
:102E3000304670BD022070BD206800F057FE20684B
:102E4000816941F0080181612068816921F00401F4
:102E50008161206881692A69114311E0206800F0CE
:102E600075FE2068816941F4006181612068816993
:102E700021F480618161206881692A6941EA022127
:102E80008161D2E7206800F097FE2068C16941F0B7
:102E90000801C1612068C16921F00401C161206895
:102EA000C1692A69114311E0206800F0B9FE206869
:102EB000C16941F40061C1612068C16921F4806188
:102EC000C1612068C1692A6941EA0221C161ACE798
:102ED00010B5040003D094F83D0010B107E00120C4
:102EE00010BD002084F83C00204600F01EF80220AF
:102EF00084F83D00211D206800F092FD012084F837
:102F0000460084F83E0084F83F0084F8400084F8CE
:102F1000410084F8420084F8430084F8440084F8B7
:102F2000450084F83D00002010BD70477047000048
:102F300010B50446022249B104290ED0082913D045
:102F400094F84100012816D0012010BD94F83E00ED
:102F50000128F9D184F83E200FE094F83F000128C1
:102F6000F2D184F83F2008E094F840000128EBD12A
:102F700084F8402001E084F841200122206800F01C
:102F800095FD13492068134A884201D0904203D12D
:102F9000436C43F400434364206888420DD0904260
:102FA0000BD0B0F1804F08D00B49884205D00B49B7
:102FB000884202D00A49884204D1816801F00701A1
:102FC000062903D0016841F001010160002010BD15
:102FD000002C014000340140000400400008004083
:102FE000000C00402DE9F84F314E324F324B334D3B
:102FF00033490024334AB04257D1B9463F889A46F4
:103000007F1CBFB2A9F800701B8890465B1CAAF811
:10301000003028888B46401C288012882A48521C81
:10302000A8F80020006802F06DF80090384602F021
:1030300021F8009902F032F903D830684463A9F806
:10304000004022485946006802F05CF88146574625
:10305000BAF8000002F00EF8494602F01FF902D853
:10306000306884633C801A485946006802F04AF888
:103070000746288801F0FEFF394602F00FF902D812
:103080003068C4632C8013485946006802F03AF84F
:1030900007464546B8F8000001F0ECFF394602F05B
:1030A000FDF802D8306804642C80BDE8F88F000079
:1030B0005803002002000020040000200600002029
:1030C0000000484524000020080000200C000020DB
:1030D0001000002028000020704770477047000053
:1030E000F8B5016804460868CA684B6910F00F0F0C
:1030F0004FF0000559D003F0010602F490773743F2
:1031000065D0C10705D0D10503D5616C41F001013F
:103110006164410705D5D90703D0616C41F0020114
:103120006164810705D5D90703D0616C41F00401C2
:103130006164010707D502F02001314303D0616CBF
:1031400041F008016164616C00293AD0800604D521
:10315000900602D5204600F024FE20684069616C8C
:10316000C0F38010090700D460B3204600F0F2FDE0
:1031700020684069400621D52068143050E8001FBF
:1031800021F0400140E80012002AF5D1E06BA8B11F
:103190006D494163E06BFEF701FE002811D0E06B42
:1031A000416B01B0BDE8F040084783060FD5930698
:1031B0000DD52046BDE8F84000F0F3BD2046FFF7EE
:1031C0008DFFF8BD2046FFF789FF6564F8BD266BCB
:1031D0002023012E7CD1C6067AD5D60678D508687C
:1031E0004868009048694FF00206400640D5E16B00
:1031F000086840680004000CE8D0A28D8242E5D93E
:10320000E085886920282DD020680C3050E8001F08
:1032100021F4807140E80012002AF5D120681430B2
:1032200050E8001F21F0010140E80012002AF5D10A
:103230002068143050E8001F21F0400140E80012DF
:10324000002AF5D184F84230256320680C3050E81C
:10325000001F21F0100140E80012002AF5D1E06BB8
:10326000FEF778FD6663A08DE18D401A81B22AE0F9
:10327000A08DE18D401A81B2E08D0028A6D00029F2
:10328000A4D022680C3252E8000F20F4907042E87B
:103290000007002FF5D12068143050E8002F22F0ED
:1032A000010240E80027002FF5D184F84230256361
:1032B00020680C3050E8002F22F0100240E8002374
:1032C000002BF5D166632046FFF707FFF8BDFFE747
:1032D00005062BD5150629D594F841002128F5D1EE
:1032E000A068B0F5805F01D12069B0B1206A411CAF
:1032F0002162216800784860E08C401E0004000CC8
:10330000E084E3D12068C16821F08001C1602068B9
:10331000C16841F04001C160D8E7206A0088C0F36D
:1033200008004860206A801C2062E5E74006CDD591
:103330005006CBD5CA68204622F04002CA6084F805
:10334000413000F0E0F8C1E7453D000870B50400E9
:1033500004D094F84100002510B106E0012070BDB2
:1033600084F84050204600F023F8242084F84100DF
:103370002068C16821F40051C160204600F072FD50
:103380002068016921F4904101612068416921F0C0
:103390002A0141612068C16841F40051C16065643F
:1033A000202084F8410084F842006563002070BD4D
:1033B00070B586B0002400940194029403942E4EBC
:1033C00003682E49022003222D4DB34226D18B697A
:1033D00043F480438B618B6903F4804304938B69CE
:1033E00043F004038B618969039201F004010491A5
:1033F0000102CDE9001069462846FEF797FD281521
:10340000CDE90004694628460294FEF78FFD0022AC
:1034100011462520FEF710FF252028E0194EB34263
:1034200027D1CB6943F40033CB61CB6903F400337C
:1034300004938B6943F004038B618969039201F063
:10344000040104910421CDE9001069462846FEF7E5
:103450006DFD0820CDE90004694628460294FEF778
:1034600065FD002211462620FEF7E6FE2620FEF727
:10347000D6FE06B070BD00000038014000100240CA
:10348000000801400044004090F84230202B01D059
:103490000220704721B11AB10023036300F03EBD42
:1034A0000120704710B50068074988420BD10748D2
:1034B000007801F081FB012204490548FFF7E4FF91
:1034C00002490120486110BD003801400000002081
:1034D000A003002090F84130202B01D0022070473B
:1034E00079B172B101628284C284002141642121D8
:1034F00080F841100068C16841F08001C16000207F
:103500007047012070477047FEE700002DE9F04F3B
:1035100085B0002441480094019402940394816989
:1035200041F020018161816901F0200104918169EC
:1035300041F010018161816901F0100104918169FC
:1035400041F004018161816901F004010491816904
:1035500041F0080181618069DFF8C49000F0080043
:1035600004900022F0214846FEF7E4FDDFF8B4A005
:103570004FF48267002239465046FEF7DBFDDFF844
:10358000A8B04FF26738002241465846FEF7D2FDF8
:10359000002204212548FEF7CDFD0125CDE9005488
:1035A000694650460294FEF7C1FCF0200226CDE9A0
:1035B0000005CDE9024669464846FEF7B7FC00978C
:1035C0000396CDE9015469465046FEF7AFFC202032
:1035D00000901748CDE9010569465046FEF7A6FC64
:1035E000CDF800800396CDE9015469465846FEF7B0
:1035F0009DFC0420CDE90005CDE9024669460B4853
:10360000FEF794FC002211461720FEF715FE172046
:10361000FEF705FE05B0BDE8F08F00000010024087
:103620000008014000100140000C0140001401405E
:103630000000211010B596B000240F94109411943E
:10364000129413941C2168461494FCF7CAFF20219D
:1036500007A8FCF7C6FF2C482A49016041F61F4124
:10366000C0E901146321C0E9031444618461FFF7D8
:103670001DF908B1FEF76CFB4FF480500F900FA9B5
:103680002148FFF7D3F908B1FEF762FB1E48FFF7A8
:103690001FFC08B1FEF75CFB139413A91A4814949D
:1036A000FFF7C6F808B1FEF753FB6020CDE9000430
:1036B00002940394049405940022694612480694E7
:1036C000FFF7A0FB08B1FEF743FB0C2269460E484A
:1036D000FFF798FB08B1FEF73BFB079408940994A9
:1036E0004FF400500A94CDE90B4007A906480E9408
:1036F000FFF774F808B1FEF72BFB0348FFF7B8FAA1
:1037000016B010BD002C0140C802002010B58EB0CC
:1037100000240794089409940A940B941C21684689
:103720000C94FCF75EFF2D484FF08041016041F69C
:103730001F41C0E901146321C0E903148461FFF74C
:10374000B5F808B1FEF704FB4FF48050079007A9C5
:103750002248FFF76BF908B1FEF7FAFA1F48FFF7A6
:10376000B7FB08B1FEF7F4FA1C48FFF71DFB08B1E0
:10377000FEF7EEFA0B940BA918480C94FFF758F8D3
:1037800008B1FEF7E5FA6020CDE9000402940022BA
:10379000694612480494FFF735FB08B1FEF7D8FAE2
:1037A000042269460D48FFF72DFB08B1FEF7D0FA59
:1037B0000822694609480094FFF7CCFA08B1FEF7E1
:1037C000C7FA0C2269460548FFF7C4FA08B1FEF7AC
:1037D000BFFA0248FFF74CFA0EB010BD10030020EC
:1037E00010B596B000240F94109411941294139471
:1037F0001C2168461494FCF7F4FE202107A8FCF76E
:10380000F0FE35483349016040F2CF21C0E9011490
:103810000921C0E903148021C0E90541FFF746F8FA
:1038200008B1FEF795FA4FF480500F900FA92A487F
:10383000FFF7FCF808B1FEF78BFA2748FFF748FBC3
:1038400008B1FEF785FA139413A923481494FEF7E0
:10385000EFFF08B1FEF77CFA6020CDE90004029486
:10386000039404940594002269461B480694FFF7CC
:10387000C9FA08B1FEF76CFA042269461648FFF748
:10388000C1FA08B1FEF764FA082269461248FFF748
:10389000B9FA08B1FEF75CFA0C2269460E48FFF748
:1038A000B1FA08B1FEF754FA0794089409944FF45A
:1038B00000500A94CDE90B4007A907480E94FEF783
:1038C0008DFF08B1FEF744FA0348FFF7D1F916B0AF
:1038D00010BD000000340140580300200C4810B512
:1038E0000A4901604FF4E1314160002181600C22FE
:1038F000C160C0E904128161C161FFF727FD0028A2
:1039000003D0BDE81040FEF723BA10BD00380140D7
:10391000A00300200C4810B50A4901604FF416516D
:103920004160002181600C22C160C0E90412816104
:10393000C161FFF70BFD002803D0BDE81040FEF782
:1039400007BA10BD00440040E8030020FEE7FEE790
:1039500070477047064810B5016841F004010160E6
:103960008015FEF79BFCBDE81040FEF7A5BC0000EB
:1039700000700040FEF7EABB30B58FB028216846E2
:10398000FCF72FFE14210AA8FCF72BFE01210804E6
:10399000CDE900100024029402250491CDE90750DE
:1039A0004FF4E01009906846FEF772FD08B172B658
:1039B000FEE70F20CDE90A054FF48060CDE90C4009
:1039C00002210AA80E94FEF787FC002801D072B6E7
:1039D000FEE70FB030BD70470148FFF796B8000012
:1039E000C80200200148FFF790B800001003002033
:1039F0000148FFF78AB80000580300200148FFF78C
:103A000084B80000580300200148FFF77EB800008A
:103A1000580300200148FFF778B800005803002041
:103A2000F0B502681C4B1D4D1D4E1E4F1E4C4FF035
:103A3000804C984209D0A04207D0604505D0A842EA
:103A400003D0B04201D0B84204D122F0700E4A68CF
:103A500042EA0E02984209D0A04207D0604505D044
:103A6000A84203D0B04201D0B84203D122F440753D
:103A7000CA682A434D6922F080022A4302608A689C
:103A8000C2620A688262984201D0A04201D10969EB
:103A9000016301214161F0BD002C014000040040A0
:103AA00000080040000C00400034014010B501F057
:103AB0001F030121046A99408C430462016A9A4001
:103AC0001143016210BD10B5846842EA032224F458
:103AD0007F440A432243826010BD826822F0700254
:103AE0000A4342F00701816070470000F0B5036AA5
:103AF000026A22F00102026242688469124E24F0D6
:103B000073050C682C4323F002058B682B430D4D85
:103B1000A84201D0B04205D123F00807CB683B434F
:103B200023F00403A84201D0B04205D14D6922F42C
:103B3000407215438A692A4342608461496841633F
:103B40000362F0BD002C014000340140F0B5026A70
:103B5000036A23F010030362436884690D6824F448
:103B6000E64444EA05248D6822F0200242EA051268
:103B70000F4D104EA84201D0B04206D1CF6822F0BE
:103B8000800242EA071222F04002A84201D0B0426D
:103B900007D14D6923F4406343EA85038D6943EA05
:103BA000850343608461496881630262F0BD00005F
:103BB000002C014000340140F0B5026A036A23F48E
:103BC000807303624368C46922F4007224F07305B1
:103BD0000C68124E2C438D6842EA05220E4DA84215
:103BE00001D0B04206D1CF6822F4006242EA072237
:103BF00022F48062A84201D0B04207D14D6923F47B
:103C0000405343EA05138D6943EA05134360C461D9
:103C10004968C1630262F0BD002C014000340140DC
:103C200030B5046A026A22F4805202624268C369B3
:103C30000D6823F4E64343EA05238D6824F4005419
:103C400044EA0534084DA84202D0084DA84204D1E8
:103C50004D6922F4804242EA85124260C36149689C
:103C60000164046230BD0000002C014000340140BA
:103C700010B5036A046A24F001040462846924F024
:103C8000F00444EA021423F00A020A438461026247
:103C900010BD10B5036A046A24F01004046284693C
:103CA00023F0A00324F4704444EA023243EA0111F1
:103CB0008261016210BD00000FB4FF2070B59CB09E
:103CC00000248DF8680021AB65216846209AFCF736
:103CD000F3FA1B4D6E460DE03119641CE4B201226B
:103CE0001748FFF7F7FB00BF95F841002028FBD1EC
:103CF000642C04D26846FCF755FCA042ECD80122A3
:103D00001AA90F48FFF7E6FB95F841002028FBD1E0
:103D100001221AA90A48FFF7DDFB00BF95F8410010
:103D20002028FBD101221AA90548FFF7D3FB00BFC9
:103D300095F841002028FBD11CB070BC5DF814FB45
:103D4000A003002010B5406A0021C185C184FFF79F
:103D5000C5F910BD01680C3151E8002F22F49072B2
:103D600041E80023002BF5D10168143151E8002F00
:103D700022F0010241E80023002BF5D1016B01295B
:103D800009D101680C3151E8002F22F0100241E8FE
:103D90000023002BF5D1202180F84210002101637F
:103DA000704708B590F84210222901D0022008BDC2
:103DB00082684FF480539A4201D1016921B1816A2E
:103DC0009A421BD04AB10AE00268816A5268C2F383
:103DD00008020A80816A891C08E0026972B10268DF
:103DE000526802F07F020A70816A491C8162C18DAB
:103DF000491E0904090CC18503D01BE00268526802
:103E0000F1E70168CA6822F02002CA600168CA6846
:103E100022F48072CA6001684A6922F001024A6194
:103E2000202180F8421000214163026B012A03D057
:103E3000FFF738FB002008BD016301680C3151E831
:103E4000002F22F0100241E80023002BF5D1016879
:103E50000A68D20602D50A6849680091818DFFF789
:103E60003CF9E7E770B5044600680169E26821F4AF
:103E70004051114301612169A06808436169084309
:103E80002168CA6841F20C639A430243CA60206801
:103E90004169A26921F44071114341611E492068C2
:103EA000884202D1FEF7BEFA01E0FEF7ABFA00EB62
:103EB000C00101EB0012606864218000B2FBF0F3E6
:103EC000B3FBF1F36FF018067343B2FBF0F5B2FBEE
:103ED000F0F605EB8305322303EB0515B5FBF1F591
:103EE000B6FBF1F605F0F00505EB0615B2FBF0F6B2
:103EF000B2FBF0F0B0FBF1F06FF01802504306EBAC
:103F0000800003EB0010B0FBF1F0216800F00F001F
:103F10002844886070BD00000038014081628285BD
:103F2000C28500214164222180F84210016921B13B
:103F30000168CA6842F48072CA6001684A6942F046
:103F400001024A610068C16841F02001C16000209F
:103F5000704700000148FFF7C3B80000A00300202D
:103F60000148FFF7BDB80000E8030020FEE7490064
:103F700050EAC12018BF04204A0D18BF40F00100CC
:103F800040F2FF72B2EB515F08BF40F0020001281F
:103F900008BF052070470907090E002804DB00F15F
:103FA000E02080F80014704700F00F0000F1E020DE
:103FB00080F8141D704730380A2801D2012070475C
:103FC0000020704770B500F0DBF840F2DC5420466A
:103FD000FDF77CFF00F03EF84FF47A752A464FF467
:103FE0003971032000F018FD2A4640F28F21042089
:103FF00000F012FD2046FDF769FF00F02BF82A467D
:104000004FF4C371032000F007FD2A464FF4A57159
:10401000042000F001FD2046FDF758FF00F01AF8DB
:104020002A4640F23A21032000F0F6FC2A466910A5
:10403000042000F0F1FC00F0D7FD6800FDF746FF1A
:1040400000F018FD6000FDF741FFBDE8704000F092
:1040500097B800002DE9F041284D01222021284683
:10406000FEF768F8002240212846FEF763F86E1537
:10407000002231462846FEF75DF801221702394634
:104080002846FEF757F84FF47A742046FDF71EFFD6
:1040900022464FF44871012000F0BEFC22464FF446
:1040A0001171082000F0B8FC2046FDF70FFF2246F2
:1040B00040F2B631012000F0AFFC22464FF42F71E0
:1040C000082000F0A9FC4FF4C860FDF7FFFE0022B5
:1040D00020212846FEF72EF8002240212846FEF730
:1040E00029F8002239462846FEF724F831462846AA
:1040F000BDE8F0410022FEF71DB80000000C0140B1
:1041000070B5174D012220212846FEF713F8002232
:1041100040212846FEF70EF84FF47A742046FDF74A
:10412000D5FE22464FF41171082000F075FC2046A0
:10413000FDF7CCFE22464FF42F71082000F06CFCF6
:104140004FF4C860FDF7C2FE002220212846FDF78B
:10415000F1FF2846BDE8704000224021FDF7EABF8C
:10416000000C01400EB5024604A16846FCF7BEF8FB
:10417000102200216846FCF7DDF90EBD255800002D
:1041800010B54FF47A7422464FF41171072000F0F5
:1041900043FC22464FF40C71052000F03DFC204604
:1041A000FDF794FE14491348086014490860144947
:1041B0000020088013490880012000F06BF80020DF
:1041C00000F060F8104905200A68D0630968886328
:1041D00040F6C410FDF77AFE22464FF4EB7107203B
:1041E00000F01AFC2246BDE810404FF4D0710520C3
:1041F00000F012BC9A99E940100000200C00002049
:1042000006000020040000205803002070B40D496F
:104210008A88824213D900224FF4FA740BE08B880B
:104220006BB10D885B1E6D1CB5FBF4F604FB1655D7
:104230000D808B80521C8242F1DB70BC704770BCD9
:1042400000F030B8CC00002010B500210848FEF77F
:104250006FFE04210648FEF76BFE08210448FEF7B6
:1042600067FEBDE810400C210148FEF761BE00006A
:1042700058030020C2B201210148FDF75BBF0000D6
:10428000000C0140C2B202210148FDF753BF0000FB
:10429000000C0140C2B204210148FDF74BBF0000F1
:1042A000000C01400248002101804180818070475C
:1042B000CC0000202DE9F05FFE4C16E0002000F05D
:1042C000CBFB11280ED1032000F0C6FBFF2809D13B
:1042D000042000F0C1FBFF2804D1052000F0BCFB46
:1042E000FF2805D00120FFF791FFA0880628E5D21E
:1042F000002000F0B1FB11287ED1032000F0ACFBC0
:10430000FF2879D1042000F0A7FBFF2874D10520F5
:1043100000F0A2FBFF286FD1012000F09DFB4FF4BD
:104320008044DFF894836510DFF890B34FF4806A1F
:104330004FF47A7901287DD0012000F08DFB02280E
:1043400079D0012000F088FB032875D0012000F00F
:1043500083FB0025DFF868B3DA4C0827DA4E4FF00C
:10436000010A0A2869D0012000F076FB0B2865D0ED
:10437000012000F071FB05270E287DD0012000F000
:104380006BFB0F2879D0012000F066FB4FF4807B97
:104390004FF4007A112871D0012000F05DFB122843
:1043A0006DD0012000F058FB132869D0012000F0E7
:1043B00053FB14287ED0012000F04EFB20287AD039
:1043C000012000F049FB212876D0012000F044FBB9
:1043D000DFF8F8824FF4117A4FF40C7B22286CD06E
:1043E000012000F039FB232868D0012000F034FBC5
:1043F00024287DD0012000E07DE000F02DFB252861
:1044000077D0012000F028FB262873D0012000F08F
:1044100023FB27286FD100F051FB4C464A464FF44E
:10442000EB71072000F0F8FA4FEA04024FF4D07164
:10443000052004E00AE071E0CEE0D8E0F1E000F011
:10444000EBFABDE8F05F0620FFF7E0BE0122102185
:104450009F48FDF76FFE002220219D48FDF76AFE70
:10446000012240219A48FDF765FE002280219848EC
:10447000FDF760FE012204E0EFE030E15AE165E182
:104480007DE1D1034046FDF755FE0022214640461E
:10449000FDF750FE012229464046FDF74BFE002263
:1044A000564651465F465846FDF744FE4846FDF7DE
:1044B0000DFD04E06BE183E186E190E1BAE10022C9
:1044C00010218348FDF736FE002220218048FDF7A9
:1044D00031FE002240217E48FDF72CFE0022802183
:1044E0007B48FDF727FE00224FF40041404603E0E1
:1044F000B3E1C3E1C7E1D1E1FDF71CFE0022214693
:104500004046FDF717FE002229464046FDF712FE01
:10451000002231463846FDF70DFE61E000221021F1
:104520006B48FDF707FE012220216948FDF702FED6
:10453000002240216648FDF7FDFD012280216448EC
:10454000FDF7F8FD00224FF400414046FDF7F2FD73
:10455000012221464046FDF7EDFD00222946404656
:10456000FDF7E8FD0122564651465F465846FDF7E5
:10457000E1FD0620FFF74AFE00F0A0FA4846FDF7ED
:10458000A5FC002210215248FDF7D4FD0022202175
:104590004F48FDF7CFFD002240214D48FDF7CAFDF1
:1045A000002280214A48FDF7C5FD00224FF400415A
:1045B0004046FDF7BFFD002221464046FDF7BAFD0B
:1045C000002229464046FDF7B5FD31463846BDE894
:1045D000F05F0022FDF7AEBD00F070FAFFF7F2FCCD
:1045E0000620FFF713FEBDE8F05F00F067BA022077
:1045F00000F032FAFFF7B6FD00F0C4FC00225B4683
:1046000000F068FB00F034FBA06065803068476311
:1046100000F054FA0620FFF7F9FD5046C4F818A040
:1046200017E0022000F018FAFFF79CFD00F0AAFC4A
:1046300000225B4600F04EFB00F01AFBA060658094
:104640003068476300F03AFA0620FFF7DFFD28469E
:10465000A561BDE8F05FFFF70DBE022000F0FCF998
:10466000FFF780FD00F08EFC00225B4600F032FB7D
:1046700000F0FEFA2061E580022000F0EDF9FFF77E
:1046800071FD00F07FFC00225B4600F023FB00F090
:10469000EFFAE060A5803068C7633068876300F098
:1046A0000DFA0620FFF7B2FDC4E9075A5046FFF79E
:1046B000F1FD0FE0CC000020000C01400010014093
:1046C0000000244000000020580300209A99E9408F
:1046D00000080140E069BDE8F05FFFF7D3BD0220AC
:1046E00000F0BAF9FFF73EFD00F04CFC00225B46FB
:1046F00000F0F0FA00F0BCFA2061022000F0ACF902
:10470000FFF730FD00F03EFC00225B4600F0E2FACD
:1047100000F0AEFAE060E580A580C4E907A5284670
:10472000FFF7B8FDE069FFF7ADFD3068C76330689B
:10473000876308E001225C46594645464046FDF73E
:10474000F9FC00220AE000F0B9F97AE600225C46A2
:10475000594645464046FDF7EDFC01225646514676
:104760002846FDF7E7FCC820FDF7B0FB00222146F4
:104770002846FDF7DFFC0022314628461DE00122D5
:10478000202144464046FDF7D5FC002206E00022E9
:10479000202144464046FDF7CDFC01224021204621
:1047A000FDF7C8FCC820FDF791FB00222021204620
:1047B000FDF7C0FC002240212046FDF7BBFCC2E70C
:1047C00000F07CF9364802E000F078F93548A06046
:1047D00065800120FFF74EFD3068476331E600F049
:1047E0006DF94A465146072000F016F94A465946E7
:1047F000052000F011F94846FDF768FBC4F8108069
:10480000C4F80C80E580A5800120FFF743FD00205F
:10481000FFF738FD3068C7633068876340F6C4101F
:10482000FDF754FB4A464FF4EB71072000F0F4F813
:104830004A46FBE500F042F9C4F81080C4F80C8049
:10484000E580A5800020FFF725FD0120FFF71AFD78
:104850003068C76330688763F3E500F02FF9FFF72E
:104860004FFC4FF4FA642046FDF730FBFFF748FC9D
:104870002046FDF72BFBFFF743FCE2E500F01EF9B5
:1048800000F0B2F9DDE500F019F94C464A46514610
:10489000072000F0C1F822465946C9E5BDE8F09F5F
:1048A000000008410000AA42FDF758FCFFF764F839
:1048B000FEF72CFEFFF72EF8FFF710F8FEF790FF3B
:1048C000FEF724FFFEF7B6FE2248FEF779F82248ED
:1048D000FEF776F82148FEF773F800211F48FEF72F
:1048E00027FB0C211D48FEF723FB00211A48FEF789
:1048F0001FFB04211848FEF71BFB08211648FEF792
:1049000017FB0C211448FEF713FB00F03DF8FFF7EE
:10491000C9FC012212491348FEF7B6FDFFF794FCCB
:104920004FF47A726421042000F076F80EA0FFF7AD
:10493000C3F9134C134E00252068012801D1FFF75D
:10494000B9FC042130462560FDF7ECFB6420FDF73F
:10495000BDFAF1E75803002010030020C802002030
:1049600000000020A003002070616765302E7431C4
:104970002E7478743D2261626322FFFFFF00000005
:1049800014000020001401401E4910B50A682820B8
:10499000D0630A6810640A685063096888631A491A
:1049A0000A68506309680864184C002210212046E8
:1049B000FDF7C0FB002220212046FDF7BBFB0022B3
:1049C00040212046FDF7B6FB002280212046FDF75E
:1049D000B1FB0F4C00224FF400412046FDF7AAFB2B
:1049E00000224FF480412046FDF7A4FB0022611411
:1049F0002046FDF79FFB00222115BDE81040054829
:104A0000FDF798BB10030020C802002000080140F9
:104A1000000C01400010014030B41F2817D8002AB4
:104A200015D00C4B55245C701C7008249C7003241A
:104A3000DC7001241C715A71120A9A71D8711972B2
:104A4000080A587230BC0A21184600F09FB830BCE2
:104A5000704700003C00002005490A8810444FF4CC
:104A6000FA72B0FBF2F302FB13000844807970473E
:104A7000CC0000200C4910B50A4808600B490860BA
:104A80000B49002008800B490880FFF703FC012038
:104A9000FFF7F8FB084905200A68D06309688863B6
:104AA00010BD00009A99E940100000200C00002081
:104AB00006000020040000205803002010B500204C
:104AC000FFF7CAFF014613A0FFF7F6F80120FFF732
:104AD000C3FF014614A0FFF7EFF80220FFF7BCFF69
:104AE000014616A0FFF7E8F80320FFF7B5FF0146DF
:104AF00017A0FFF7E1F80420FFF7AEFF014619A069
:104B0000FFF7DAF80520FFF7A7FF01461AA0FFF725
:104B1000D3F810BD7A61697A68692E6E302E76619D
:104B20006C3D2564FFFFFF007A61697A68692E6E2B
:104B3000312E76616C3D2564FFFFFF007A61697A52
:104B400068692E6E322E76616C3D2564FFFFFF0092
:104B50007A61697A68692E6E332E76616C3D2564C0
:104B6000FFFFFF007A61697A68692E6E342E7661E4
:104B70006C3D2564FFFFFF007A61697A68692E6EDB
:104B8000352E76616C3D2564FFFFFF0070B50C4645
:104B90000546074E08E030684006FCD529466D1CE6
:104BA00001220448FEF796FC641EE4B2F3D270BD05
:104BB00000440040E80300200A4910B58B884FF4F8
:104BC000FA7293420CD24C888B1DE0544888401CEA
:104BD000B0FBF2F302FB130048808888401C8880F9
:104BE00010BD0000CC00002010B50120FFF742FBF3
:104BF00006490548086006490520096848630549D3
:104C00000020088010BD00000000084108000020BE
:104C1000580300200200002010B500290AD00878AF
:104C2000002807D005487844FCF77EFC002801D016
:104C3000002010BD0248784410BD00002A08000082
:104C40002208000010B500290AD00878002807D0F3
:104C500005487844FCF768FC002801D0002010BD0E
:104C60000248784410BD00000E090000060900004B
:104C700021F00042A2F16052B2F5801F01F0004322
:104C800028BFD2F17F6C0BD95FEA001C43EAC20255
:104C900042EB507018BF704728BF20F001007047EA
:104CA000B2F5801FBCBF184670474FEA410C1CF597
:104CB000001F02D2084600F0ECBA70B500F079F996
:104CC00000000089FFF7F6BF4FF00040A0F580001C
:104CD000704700002DE9C04130B4DFF8A0C23CEAC3
:104CE000111418BF3CEA131400F0EC8081EA0305AC
:104CF0001CEA111444EAD57418BF1CEA131500F01D
:104D0000C780A4EB05044FF0004545EAC12145EA00
:104D1000C32341EA505143EA525304F17F7499424C
:104D200004F500344FEAC0204FEAC22208BF904287
:104D300000F09C804FEA13650FF24016765D4FEA53
:104D4000134506FB05F7C7F1807706FB07F74FEA27
:104D5000D737A7FB03687642C8F58038A7FB06CE95
:104D600038BFA8F1010807FB08E64FF0000EA6FBCC
:104D7000028CE6FB03CEDCF1000CCEF1004E38BF16
:104D8000AEF1010EA6FB0C584FF000074FF00005E6
:104D9000E6FB0E87A1FB08C6A0FB07CE16EB0E06AE
:104DA00045F10005E1FB076515F1E04E7EBFA4F576
:104DB00080345FEA46066D4116F1800745F1000533
:104DC0004FEA17274FEA066647EA0567A6F1DE466F
:104DD000B6F1805F4FEA15251FD9384624F0010C43
:104DE00005EBC471BCF1FE6F01EB0C1102D8F0BCF5
:104DF000BDE8008124425CBF01F5801E9EEAC47FAD
:104E000002D4F0BCBDE80081244238D4F0BCA1F14A
:104E1000C041BDE8004100F01AB94FEAD22242EA8F
:104E200043524FEAD323A7FB02864FEAD02040EA41
:104E3000415007FB03661EEA0E0F4FEAD12105FB26
:104E4000026658BFA6EB0056B6EB00564FEA520E6C
:104E50004EEAC37E18EB0E0E56EB530EBDD518EB83
:104E600002085E417F1C55F10005B6E74FF480153E
:104E70004FF000074FF000064FF00008ADE7F0BC20
:104E80004FF0000001F1C04101F00041BDE8008198
:104E900011EA0C1F0CEA131500D00CE013EA0C1FEA
:104EA00000F025804FF00000F0BC81EA030101F022
:104EB0000041BDE80081F0BCBDE8004181EA03018A
:104EC00000F0C5B8F0BCBDE8004170B500F071F865
:104ED000097EFC3E00F007B881EA03014FF00000B4
:104EE00001F00041704781EA030100F0B0B8F0BC66
:104EF000BDE800414FF0000021497047FFFDFBF97C
:104F0000F7F5F4F2F0EEEDEBE9E8E6E4E3E1E0DEFC
:104F1000DDDBDAD8D7D5D4D3D1D0CFCDCCCBCAC86E
:104F2000C7C6C5C4C2C1C0BFBEBDBCBBBAB9B8B795
:104F3000B6B5B4B3B2B1B0AFAEADACABAAA9A8A888
:104F4000A7A6A5A4A3A3A2A1A09F9F9E9D9C9C9B56
:104F50009A99999897979695959493939291919001
:104F60008F8F8E8E8D8C8C8B8B8A89898888878792
:104F70008685858484838382828181800000FF0707
:104F80000000F87F10F0004248BF4042B0FA80F3C2
:104F900010FA03F10AD0C3F11D0303F580634FEA51
:104FA000415002EB035202EBD12170474FF0000059
:104FB00070470EF1020E2EF0030E5EF8046B3642BF
:104FC00005D4012A43EB030515F5001F12D801286B
:104FD00041EB010C1CF5001F0CD80ED14FEAD17C1F
:104FE00015F5001F0CEB4C0C0CF1020C08BF4CEB40
:104FF000D37C04E04FF0080C01E04FEAD37C0CEBCB
:105000004C0526FA05F606F00706B6F1040C06D2A2
:105010000EEB860CBDE870404CF0010C6047DFE8F9
:105020000CF0090B02024FF000414FF00000A1F517
:10503000002170BD19461046012851EB010418BF2C
:10504000D4F5001484BF002001F0004170BD0808B1
:10505000A0F500114FEA31017047401058BFC0F170
:105060004040491058BFC1F140418142EFF30080F8
:1050700070470000B0FA80F310FA03F2C3F19D0309
:105080000AD0D90501EB1220530638BF704700F152
:10509000010008BF20F001007047000050EA010C39
:1050A00000F113801CF5000F58BFBCF5000F01D4B0
:1050B0008842704707D710F5000F58BF11F5000F51
:1050C00015D488427047894270471CF5000F04D5FB
:1050D000BCF5000FF7D5814270474FF0807C1CEB88
:1050E000400F38BF1CEB410F01D28142704710B511
:1050F00000F089F8922449004FF000504FF08051A1
:10510000FFF7ABBF4FF47F0C1CEAD0121EBF1CEAA6
:10511000D11392EA0C0F93EA0C0F00F0478090EA4B
:10512000010F48BF42F480724FF0004C4CEA00205F
:105130004CEA012102EB0302A0FB0113A2F50002DD
:10514000002918BF43F001035B0028BF4FEA330377
:1051500042EB22425FEA132C4CEBC2502EBFBCEB59
:10516000436FB2F57C0F70474FEA036CBCF1004F00
:1051700008BF20F00100B2F57C0F38BF70470BD597
:1051800082F0FF0212F5803FC8BF704700F1C040B7
:10519000D8BF00F00040704700F5000C5FEA4C0CEF
:1051A00048BF7047B0F1C04000F073B890EA010FFB
:1051B0000CEAD11348BF42F48072624538BF6345A0
:1051C00004D280EA010000F00040704710B500F002
:1051D0001AF800BF8900013E00F007B800F009B8D6
:1051E0005FEA410C5FEA1C6C08D080EA010000F025
:1051F00050B85FEA400C5FEA1C6CF6D14FF00040FB
:10520000A0F5800070470EF1020E2EF0030E5EF83E
:10521000044B244204D44FEA4102B2F17F4F11D82B
:105220004FEA4003B3F17F4F0CD80ED14FEAD07C48
:10523000B2F17F4F0CEB4C0C0CF1020C08BF4CEBA5
:10524000D17C04E04FF0080C01E04FEAD17C0CEB7C
:105250004C0324FA03F404F00704B4F1040C06D25E
:105260000EEB840CBDE810404CF0010C6047DFE809
:105270000CF0070802024FF00040A0F5800010BDBE
:105280000846420018BFD2F1807288BF00F000408B
:1052900010BDFF2141EAD050C005704751EA000C13
:1052A00000F113801CF5000F58BFBCF5000F01D4AE
:1052B0008142704707D711F5000F58BF10F5000F56
:1052C00015D481427047894270471CF5000F04D500
:1052D000BCF5000FF7D5884270474FF0807C1CEB7F
:1052E000410F38BF1CEB400F01D28842704780EA63
:1052F000010081EA000180EA0100FFF7F8BEFBF738
:1053000023BDFBF757BE0102020304050607080987
:105310000A0B0C0D0E0F1010000000000000000022
:10532000010203040607080900000000010203044B
:1053300030313233343536373839414243444546CB
:1053400040305800303132333435363738396162C5
:1053500063646566403078000400000800000000C7
:10536000000000020001000010000000000000002A
:10537000000000003031323334353637383961625D
:1053800063646566787000303132333435363738CF
:105390003941424344454658500000000240000055
:1053A000000000A00000000005400000000000C850
:1053B000000000000C4000000000409C00000000C5
:1053C000194000000020BCBE000000003440000076
:1053D000BFC91B8E00000004B5400000504BCFD069
:1053E0006607E2CF010000006C4100003E8251AA36
:1053F000DFEEA73401000000D9420000DCB5A0E2D6
:105400003A301F97FFFFFFFFB4450000FD25A0C8FD
:10541000E9A3C14FFFFFFFFFFF3F00000000008036
:1054200000000000FF3F00000000008000000000BE
:105430007C550008000000203C0000006C010008C2
:10544000B85500083C000020540A000088010008FC
:105450001001000043000000F8FFFFFF0040404043
:105460004040404040404141414141404040404037
:1054700040404040404040404040404040050202E3
:1054800002020202020202020202020202202020A2
:1054900020202020202020020202020202029090FE
:1054A00090909090101010101010101010101010FC
:1054B0001010101010101010020202020202888850
:1054C000888888880808080808080808080808085C
:1054D0000808080808080808020202024000000044
:1054E00000000000000000000000000000000000BC
:1054F00000000000000000000000000000000000AC
:10550000000000000000000000000000000000009B
:10551000000000000000000000000000000000008B
:10552000000000000000000000000000000000007B
:10553000000000000000000000000000000000006B
:10554000000000000000000000000000000000005B
:10555000000000000000000000000000000000004B
:105560001C00000043000000F8FFFFFF0C000000DB
:105570000E0000000F0000002E00000000000000E0
:10558000000000000000000000000000000000001B
:10559000000000000000000000000000000000000B
:1055A00000000000000000000100000010000000EA
:0855B000000000000024F400DB
:0400000508000131BD
:00000001FF
